{
  "contractName": "BazaarItemListing",
  "abi": [
    {
      "inputs": [
        {
          "internalType": "address",
          "name": "partyA",
          "type": "address"
        },
        {
          "internalType": "int256",
          "name": "balanceA",
          "type": "int256"
        },
        {
          "internalType": "address",
          "name": "partyB",
          "type": "address"
        },
        {
          "internalType": "int256",
          "name": "balanceB",
          "type": "int256"
        }
      ],
      "payable": false,
      "stateMutability": "nonpayable",
      "type": "constructor"
    },
    {
      "anonymous": false,
      "inputs": [
        {
          "indexed": false,
          "internalType": "string",
          "name": "applicationName",
          "type": "string"
        },
        {
          "indexed": false,
          "internalType": "string",
          "name": "workflowName",
          "type": "string"
        },
        {
          "indexed": false,
          "internalType": "address",
          "name": "originatingAddress",
          "type": "address"
        }
      ],
      "name": "WorkbenchContractCreated",
      "type": "event"
    },
    {
      "anonymous": false,
      "inputs": [
        {
          "indexed": false,
          "internalType": "string",
          "name": "applicationName",
          "type": "string"
        },
        {
          "indexed": false,
          "internalType": "string",
          "name": "workflowName",
          "type": "string"
        },
        {
          "indexed": false,
          "internalType": "string",
          "name": "action",
          "type": "string"
        },
        {
          "indexed": false,
          "internalType": "address",
          "name": "originatingAddress",
          "type": "address"
        }
      ],
      "name": "WorkbenchContractUpdated",
      "type": "event"
    },
    {
      "constant": true,
      "inputs": [],
      "name": "CurrentContractAddress",
      "outputs": [
        {
          "internalType": "address",
          "name": "",
          "type": "address"
        }
      ],
      "payable": false,
      "stateMutability": "view",
      "type": "function"
    },
    {
      "constant": true,
      "inputs": [],
      "name": "CurrentSeller",
      "outputs": [
        {
          "internalType": "address",
          "name": "",
          "type": "address"
        }
      ],
      "payable": false,
      "stateMutability": "view",
      "type": "function"
    },
    {
      "constant": true,
      "inputs": [],
      "name": "InstanceBazaarMaintainer",
      "outputs": [
        {
          "internalType": "address",
          "name": "",
          "type": "address"
        }
      ],
      "payable": false,
      "stateMutability": "view",
      "type": "function"
    },
    {
      "constant": true,
      "inputs": [],
      "name": "InstancePartyA",
      "outputs": [
        {
          "internalType": "address",
          "name": "",
          "type": "address"
        }
      ],
      "payable": false,
      "stateMutability": "view",
      "type": "function"
    },
    {
      "constant": true,
      "inputs": [],
      "name": "InstancePartyB",
      "outputs": [
        {
          "internalType": "address",
          "name": "",
          "type": "address"
        }
      ],
      "payable": false,
      "stateMutability": "view",
      "type": "function"
    },
    {
      "constant": true,
      "inputs": [],
      "name": "ItemName",
      "outputs": [
        {
          "internalType": "string",
          "name": "",
          "type": "string"
        }
      ],
      "payable": false,
      "stateMutability": "view",
      "type": "function"
    },
    {
      "constant": true,
      "inputs": [],
      "name": "ItemPrice",
      "outputs": [
        {
          "internalType": "int256",
          "name": "",
          "type": "int256"
        }
      ],
      "payable": false,
      "stateMutability": "view",
      "type": "function"
    },
    {
      "constant": true,
      "inputs": [],
      "name": "PartyABalance",
      "outputs": [
        {
          "internalType": "int256",
          "name": "",
          "type": "int256"
        }
      ],
      "payable": false,
      "stateMutability": "view",
      "type": "function"
    },
    {
      "constant": true,
      "inputs": [],
      "name": "PartyBBalance",
      "outputs": [
        {
          "internalType": "int256",
          "name": "",
          "type": "int256"
        }
      ],
      "payable": false,
      "stateMutability": "view",
      "type": "function"
    },
    {
      "constant": true,
      "inputs": [],
      "name": "State",
      "outputs": [
        {
          "internalType": "enum BazaarItemListing.StateType",
          "name": "",
          "type": "uint8"
        }
      ],
      "payable": false,
      "stateMutability": "view",
      "type": "function"
    },
    {
      "constant": true,
      "inputs": [
        {
          "internalType": "address",
          "name": "buyer",
          "type": "address"
        },
        {
          "internalType": "int256",
          "name": "itemPrice",
          "type": "int256"
        }
      ],
      "name": "HasBalance",
      "outputs": [
        {
          "internalType": "bool",
          "name": "",
          "type": "bool"
        }
      ],
      "payable": false,
      "stateMutability": "view",
      "type": "function"
    },
    {
      "constant": false,
      "inputs": [
        {
          "internalType": "address",
          "name": "sellerParty",
          "type": "address"
        },
        {
          "internalType": "address",
          "name": "buyerParty",
          "type": "address"
        },
        {
          "internalType": "int256",
          "name": "itemPrice",
          "type": "int256"
        }
      ],
      "name": "UpdateBalance",
      "outputs": [],
      "payable": false,
      "stateMutability": "nonpayable",
      "type": "function"
    },
    {
      "constant": false,
      "inputs": [
        {
          "internalType": "address",
          "name": "party",
          "type": "address"
        },
        {
          "internalType": "int256",
          "name": "balance",
          "type": "int256"
        }
      ],
      "name": "ChangeBalance",
      "outputs": [],
      "payable": false,
      "stateMutability": "nonpayable",
      "type": "function"
    },
    {
      "constant": false,
      "inputs": [
        {
          "internalType": "string",
          "name": "itemName",
          "type": "string"
        },
        {
          "internalType": "int256",
          "name": "itemPrice",
          "type": "int256"
        }
      ],
      "name": "ListItem",
      "outputs": [],
      "payable": false,
      "stateMutability": "nonpayable",
      "type": "function"
    }
  ],
  "bytecode": "0x60806040523480156200001157600080fd5b50604051620022dc380380620022dc833981810160405260808110156200003757600080fd5b81019080805190602001909291908051906020019092919080519060200190929190805190602001909291905050506040518060400160405280601181526020017f42617a6161724974656d4c697374696e670000000000000000000000000000008152506040518060400160405280600681526020017f42617a61617200000000000000000000000000000000000000000000000000008152508160009080519060200190620000ea9291906200047d565b508060019080519060200190620001039291906200047d565b50505033600660006101000a81548173ffffffffffffffffffffffffffffffffffffffff021916908373ffffffffffffffffffffffffffffffffffffffff1602179055508173ffffffffffffffffffffffffffffffffffffffff168473ffffffffffffffffffffffffffffffffffffffff161415620001ea576040517f08c379a00000000000000000000000000000000000000000000000000000000081526004018080602001828103825260198152602001807f50617274696573206d75737420626520646966666572656e740000000000000081525060200191505060405180910390fd5b83600260016101000a81548173ffffffffffffffffffffffffffffffffffffffff021916908373ffffffffffffffffffffffffffffffffffffffff1602179055508260038190555081600460006101000a81548173ffffffffffffffffffffffffffffffffffffffff021916908373ffffffffffffffffffffffffffffffffffffffff1602179055508060058190555030600b60006101000a81548173ffffffffffffffffffffffffffffffffffffffff021916908373ffffffffffffffffffffffffffffffffffffffff1602179055506000600260006101000a81548160ff02191690836002811115620002db57fe5b0217905550620002f0620002fa60201b60201c565b505050506200052c565b7f5164ff06e10737dceb282871701b28082988339e79ba9d49c6c9b0e00312982b60006001336040518080602001806020018473ffffffffffffffffffffffffffffffffffffffff1673ffffffffffffffffffffffffffffffffffffffff168152602001838103835286818154600181600116156101000203166002900481526020019150805460018160011615610100020316600290048015620003e35780601f10620003b757610100808354040283529160200191620003e3565b820191906000526020600020905b815481529060010190602001808311620003c557829003601f168201915b50508381038252858181546001816001161561010002031660029004815260200191508054600181600116156101000203166002900480156200046a5780601f106200043e576101008083540402835291602001916200046a565b820191906000526020600020905b8154815290600101906020018083116200044c57829003601f168201915b50509550505050505060405180910390a1565b828054600181600116156101000203166002900490600052602060002090601f016020900481019282601f10620004c057805160ff1916838001178555620004f1565b82800160010185558215620004f1579182015b82811115620004f0578251825591602001919060010190620004d3565b5b50905062000500919062000504565b5090565b6200052991905b80821115620005255760008160009055506001016200050b565b5090565b90565b611da0806200053c6000396000f3fe60806040523480156200001157600080fd5b5060043610620001005760003560e01c80638809882d1162000099578063a98ac906116200006f578063a98ac9061462000422578063e3bc655614620004aa578063f1b6dccd14620004f6578063f2146ccd14620005255762000100565b80638809882d146200033e57806390432935146200038a57806392d9de5114620003d65762000100565b80634ba9d38211620000db5780634ba9d38214620002415780634ffc5bd614620002615780636697950214620002ad57806383c9476814620002cd5762000100565b806306f7fa1614620001055780630ae2aae714620001d0578063339650d914620001f0575b600080fd5b620001ce600480360360408110156200011d57600080fd5b81019080803590602001906401000000008111156200013b57600080fd5b8201836020820111156200014e57600080fd5b803590602001918460018302840111640100000000831117156200017157600080fd5b91908080601f016020809104026020016040519081016040528093929190818152602001838380828437600081840152601f19601f820116905080830192505050505050509192919290803590602001909291905050506200058e565b005b620001da62000877565b6040518082815260200191505060405180910390f35b6200023f600480360360408110156200020857600080fd5b81019080803573ffffffffffffffffffffffffffffffffffffffff169060200190929190803590602001909291905050506200087d565b005b6200024b62000957565b6040518082815260200191505060405180910390f35b6200026b6200095d565b604051808273ffffffffffffffffffffffffffffffffffffffff1673ffffffffffffffffffffffffffffffffffffffff16815260200191505060405180910390f35b620002b762000983565b6040518082815260200191505060405180910390f35b6200033c60048036036060811015620002e557600080fd5b81019080803573ffffffffffffffffffffffffffffffffffffffff169060200190929190803573ffffffffffffffffffffffffffffffffffffffff1690602001909291908035906020019092919050505062000989565b005b6200034862000a0d565b604051808273ffffffffffffffffffffffffffffffffffffffff1673ffffffffffffffffffffffffffffffffffffffff16815260200191505060405180910390f35b6200039462000a33565b604051808273ffffffffffffffffffffffffffffffffffffffff1673ffffffffffffffffffffffffffffffffffffffff16815260200191505060405180910390f35b620003e062000a59565b604051808273ffffffffffffffffffffffffffffffffffffffff1673ffffffffffffffffffffffffffffffffffffffff16815260200191505060405180910390f35b6200042c62000a7f565b6040518080602001828103825283818151815260200191508051906020019080838360005b838110156200046e57808201518184015260208101905062000451565b50505050905090810190601f1680156200049c5780820380516001836020036101000a031916815260200191505b509250505060405180910390f35b620004b462000b21565b604051808273ffffffffffffffffffffffffffffffffffffffff1673ffffffffffffffffffffffffffffffffffffffff16815260200191505060405180910390f35b6200050062000b47565b604051808260028111156200051157fe5b60ff16815260200191505060405180910390f35b62000574600480360360408110156200053d57600080fd5b81019080803573ffffffffffffffffffffffffffffffffffffffff1690602001909291908035906020019092919050505062000b5a565b604051808215151515815260200191505060405180910390f35b33600760006101000a81548173ffffffffffffffffffffffffffffffffffffffff021916908373ffffffffffffffffffffffffffffffffffffffff1602179055508181600760009054906101000a900473ffffffffffffffffffffffffffffffffffffffff16600b60009054906101000a900473ffffffffffffffffffffffffffffffffffffffff16600260019054906101000a900473ffffffffffffffffffffffffffffffffffffffff16600460009054906101000a900473ffffffffffffffffffffffffffffffffffffffff166040516200066b9062000e25565b80806020018781526020018673ffffffffffffffffffffffffffffffffffffffff1673ffffffffffffffffffffffffffffffffffffffff1681526020018573ffffffffffffffffffffffffffffffffffffffff1673ffffffffffffffffffffffffffffffffffffffff1681526020018473ffffffffffffffffffffffffffffffffffffffff1673ffffffffffffffffffffffffffffffffffffffff1681526020018373ffffffffffffffffffffffffffffffffffffffff1673ffffffffffffffffffffffffffffffffffffffff168152602001828103825288818151815260200191508051906020019080838360005b83811015620007785780820151818401526020810190506200075b565b50505050905090810190601f168015620007a65780820380516001836020036101000a031916815260200191505b50975050505050505050604051809103906000f080158015620007cd573d6000803e3d6000fd5b50600a60006101000a81548173ffffffffffffffffffffffffffffffffffffffff021916908373ffffffffffffffffffffffffffffffffffffffff1602179055506001600260006101000a81548160ff021916908360028111156200082e57fe5b0217905550620008736040518060400160405280600881526020017f4c6973744974656d00000000000000000000000000000000000000000000000081525062000c31565b5050565b60035481565b600260019054906101000a900473ffffffffffffffffffffffffffffffffffffffff1673ffffffffffffffffffffffffffffffffffffffff168273ffffffffffffffffffffffffffffffffffffffff161415620008ea578060036000828254019250508190555062000953565b600460009054906101000a900473ffffffffffffffffffffffffffffffffffffffff1673ffffffffffffffffffffffffffffffffffffffff168273ffffffffffffffffffffffffffffffffffffffff1614156200095257806005600082825401925050819055505b5b5050565b60095481565b600260019054906101000a900473ffffffffffffffffffffffffffffffffffffffff1681565b60055481565b6200099583826200087d565b620009a482826000036200087d565b60028060006101000a81548160ff02191690836002811115620009c357fe5b021790555062000a086040518060400160405280600d81526020017f55706461746542616c616e63650000000000000000000000000000000000000081525062000c31565b505050565b600460009054906101000a900473ffffffffffffffffffffffffffffffffffffffff1681565b600760009054906101000a900473ffffffffffffffffffffffffffffffffffffffff1681565b600b60009054906101000a900473ffffffffffffffffffffffffffffffffffffffff1681565b60088054600181600116156101000203166002900480601f01602080910402602001604051908101604052809291908181526020018280546001816001161561010002031660029004801562000b195780601f1062000aed5761010080835404028352916020019162000b19565b820191906000526020600020905b81548152906001019060200180831162000afb57829003601f168201915b505050505081565b600660009054906101000a900473ffffffffffffffffffffffffffffffffffffffff1681565b600260009054906101000a900460ff1681565b6000600260019054906101000a900473ffffffffffffffffffffffffffffffffffffffff1673ffffffffffffffffffffffffffffffffffffffff168373ffffffffffffffffffffffffffffffffffffffff16141562000bc157816003541215905062000c2b565b600460009054906101000a900473ffffffffffffffffffffffffffffffffffffffff1673ffffffffffffffffffffffffffffffffffffffff168373ffffffffffffffffffffffffffffffffffffffff16141562000c2657816005541215905062000c2b565b600090505b92915050565b7fa13bd79f323c399d36191e886ded389c940ccd7e6dd744d1505943592fb2b433600060018333604051808060200180602001806020018573ffffffffffffffffffffffffffffffffffffffff1673ffffffffffffffffffffffffffffffffffffffff16815260200184810384528881815460018160011615610100020316600290048152602001915080546001816001161561010002031660029004801562000d1f5780601f1062000cf35761010080835404028352916020019162000d1f565b820191906000526020600020905b81548152906001019060200180831162000d0157829003601f168201915b505084810383528781815460018160011615610100020316600290048152602001915080546001816001161561010002031660029004801562000da65780601f1062000d7a5761010080835404028352916020019162000da6565b820191906000526020600020905b81548152906001019060200180831162000d8857829003601f168201915b5050848103825286818151815260200191508051906020019080838360005b8381101562000de257808201518184015260208101905062000dc5565b50505050905090810190601f16801562000e105780820380516001836020036101000a031916815260200191505b5097505050505050505060405180910390a150565b610f388062000e348339019056fe60806040523480156200001157600080fd5b5060405162000f3838038062000f38833981810160405260c08110156200003757600080fd5b81019080805160405193929190846401000000008211156200005857600080fd5b838201915060208201858111156200006f57600080fd5b82518660018202830111640100000000821117156200008d57600080fd5b8083526020830192505050908051906020019080838360005b83811015620000c3578082015181840152602081019050620000a6565b50505050905090810190601f168015620000f15780820380516001836020036101000a031916815260200191505b5060405260200180519060200190929190805190602001909291908051906020019092919080519060200190929190805190602001909291905050506040518060400160405280601181526020017f42617a6161724974656d4c697374696e670000000000000000000000000000008152506040518060400160405280600b81526020017f4974656d4c697374696e670000000000000000000000000000000000000000008152508160009080519060200190620001b1929190620004b5565b508060019080519060200190620001ca929190620004b5565b50505083600260016101000a81548173ffffffffffffffffffffffffffffffffffffffff021916908373ffffffffffffffffffffffffffffffffffffffff16021790555082600460006101000a81548173ffffffffffffffffffffffffffffffffffffffff021916908373ffffffffffffffffffffffffffffffffffffffff160217905550856005908051906020019062000267929190620004b5565b508460068190555081600760006101000a81548173ffffffffffffffffffffffffffffffffffffffff021916908373ffffffffffffffffffffffffffffffffffffffff16021790555080600860006101000a81548173ffffffffffffffffffffffffffffffffffffffff021916908373ffffffffffffffffffffffffffffffffffffffff1602179055506000600260006101000a81548160ff021916908360018111156200031157fe5b0217905550620003266200033260201b60201c565b50505050505062000564565b7f5164ff06e10737dceb282871701b28082988339e79ba9d49c6c9b0e00312982b60006001336040518080602001806020018473ffffffffffffffffffffffffffffffffffffffff1673ffffffffffffffffffffffffffffffffffffffff1681526020018381038352868181546001816001161561010002031660029004815260200191508054600181600116156101000203166002900480156200041b5780601f10620003ef576101008083540402835291602001916200041b565b820191906000526020600020905b815481529060010190602001808311620003fd57829003601f168201915b5050838103825285818154600181600116156101000203166002900481526020019150805460018160011615610100020316600290048015620004a25780601f106200047657610100808354040283529160200191620004a2565b820191906000526020600020905b8154815290600101906020018083116200048457829003601f168201915b50509550505050505060405180910390a1565b828054600181600116156101000203166002900490600052602060002090601f016020900481019282601f10620004f857805160ff191683800117855562000529565b8280016001018555821562000529579182015b82811115620005285782518255916020019190600101906200050b565b5b5090506200053891906200053c565b5090565b6200056191905b808211156200055d57600081600090555060010162000543565b5090565b90565b6109c480620005746000396000f3fe608060405234801561001057600080fd5b50600436106100935760003560e01c8063a98ac90611610066578063a98ac90614610194578063af3465f614610217578063b7303ba114610221578063f1b6dccd1461026b578063f7066a191461029757610093565b806307fd3687146100985780634ba9d382146100e257806356d60b7614610100578063696d39ff1461014a575b600080fd5b6100a06102e1565b604051808273ffffffffffffffffffffffffffffffffffffffff1673ffffffffffffffffffffffffffffffffffffffff16815260200191505060405180910390f35b6100ea610307565b6040518082815260200191505060405180910390f35b61010861030d565b604051808273ffffffffffffffffffffffffffffffffffffffff1673ffffffffffffffffffffffffffffffffffffffff16815260200191505060405180910390f35b610152610333565b604051808273ffffffffffffffffffffffffffffffffffffffff1673ffffffffffffffffffffffffffffffffffffffff16815260200191505060405180910390f35b61019c610359565b6040518080602001828103825283818151815260200191508051906020019080838360005b838110156101dc5780820151818401526020810190506101c1565b50505050905090810190601f1680156102095780820380516001836020036101000a031916815260200191505b509250505060405180910390f35b61021f6103f7565b005b610229610747565b604051808273ffffffffffffffffffffffffffffffffffffffff1673ffffffffffffffffffffffffffffffffffffffff16815260200191505060405180910390f35b61027361076d565b6040518082600181111561028357fe5b60ff16815260200191505060405180910390f35b61029f610780565b604051808273ffffffffffffffffffffffffffffffffffffffff1673ffffffffffffffffffffffffffffffffffffffff16815260200191505060405180910390f35b600260019054906101000a900473ffffffffffffffffffffffffffffffffffffffff1681565b60065481565b600860009054906101000a900473ffffffffffffffffffffffffffffffffffffffff1681565b600760009054906101000a900473ffffffffffffffffffffffffffffffffffffffff1681565b60058054600181600116156101000203166002900480601f0160208091040260200160405190810160405280929190818152602001828054600181600116156101000203166002900480156103ef5780601f106103c4576101008083540402835291602001916103ef565b820191906000526020600020905b8154815290600101906020018083116103d257829003601f168201915b505050505081565b33600360006101000a81548173ffffffffffffffffffffffffffffffffffffffff021916908373ffffffffffffffffffffffffffffffffffffffff160217905550600360009054906101000a900473ffffffffffffffffffffffffffffffffffffffff1673ffffffffffffffffffffffffffffffffffffffff16600260019054906101000a900473ffffffffffffffffffffffffffffffffffffffff1673ffffffffffffffffffffffffffffffffffffffff1614156104b557600080fd5b6000600460009054906101000a900473ffffffffffffffffffffffffffffffffffffffff1690508073ffffffffffffffffffffffffffffffffffffffff1663f2146ccd600360009054906101000a900473ffffffffffffffffffffffffffffffffffffffff166006546040518363ffffffff1660e01b8152600401808373ffffffffffffffffffffffffffffffffffffffff1673ffffffffffffffffffffffffffffffffffffffff1681526020018281526020019250505060206040518083038186803b15801561058557600080fd5b505afa158015610599573d6000803e3d6000fd5b505050506040513d60208110156105af57600080fd5b81019080805190602001909291905050506105c957600080fd5b8073ffffffffffffffffffffffffffffffffffffffff166383c94768600260019054906101000a900473ffffffffffffffffffffffffffffffffffffffff16600360009054906101000a900473ffffffffffffffffffffffffffffffffffffffff166006546040518463ffffffff1660e01b8152600401808473ffffffffffffffffffffffffffffffffffffffff1673ffffffffffffffffffffffffffffffffffffffff1681526020018373ffffffffffffffffffffffffffffffffffffffff1673ffffffffffffffffffffffffffffffffffffffff1681526020018281526020019350505050600060405180830381600087803b1580156106ca57600080fd5b505af11580156106de573d6000803e3d6000fd5b505050506001600260006101000a81548160ff0219169083600181111561070157fe5b02179055506107446040518060400160405280600781526020017f4275794974656d000000000000000000000000000000000000000000000000008152506107a6565b50565b600360009054906101000a900473ffffffffffffffffffffffffffffffffffffffff1681565b600260009054906101000a900460ff1681565b600460009054906101000a900473ffffffffffffffffffffffffffffffffffffffff1681565b7fa13bd79f323c399d36191e886ded389c940ccd7e6dd744d1505943592fb2b433600060018333604051808060200180602001806020018573ffffffffffffffffffffffffffffffffffffffff1673ffffffffffffffffffffffffffffffffffffffff1681526020018481038452888181546001816001161561010002031660029004815260200191508054600181600116156101000203166002900480156108905780601f1061086557610100808354040283529160200191610890565b820191906000526020600020905b81548152906001019060200180831161087357829003601f168201915b50508481038352878181546001816001161561010002031660029004815260200191508054600181600116156101000203166002900480156109135780601f106108e857610100808354040283529160200191610913565b820191906000526020600020905b8154815290600101906020018083116108f657829003601f168201915b5050848103825286818151815260200191508051906020019080838360005b8381101561094d578082015181840152602081019050610932565b50505050905090810190601f16801561097a5780820380516001836020036101000a031916815260200191505b5097505050505050505060405180910390a15056fea265627a7a7231582092b94e5a1a0e1542c118defbdec94e9790ef34fd33fff8a67317601997a864bd64736f6c63430005100032a265627a7a7231582005967157b4ae40f5a9e28e0a8af60cb0e1037ae83727edded11f7ece8113f50a64736f6c63430005100032",
  "source": "pragma solidity ^0.5.16;\r\n\r\nimport \"./WorkbenchBase.sol\";\r\nimport \"./ItemListing.sol\";\r\n\r\ncontract BazaarItemListing is WorkbenchBase(\"BazaarItemListing\", \"Bazaar\") {\r\n    enum StateType { PartyProvisioned, ItemListed, CurrentSaleFinalized }\r\n\r\n    StateType public State;\r\n\r\n    address public InstancePartyA;\r\n    int public PartyABalance;\r\n\r\n    address public InstancePartyB;\r\n    int public PartyBBalance;\r\n\r\n    address public InstanceBazaarMaintainer;\r\n    address public CurrentSeller;\r\n\r\n    string public ItemName;\r\n    int public ItemPrice;\r\n\r\n    ItemListing currentItemListing;\r\n    address public CurrentContractAddress;\r\n\r\n    constructor(address partyA, int balanceA, address partyB, int balanceB) public {\r\n        InstanceBazaarMaintainer = msg.sender;\r\n\r\n        // ensure the two parties are different\r\n        require(partyA != partyB, \"Parties must be different\");\r\n\r\n        InstancePartyA = partyA;\r\n        PartyABalance = balanceA;\r\n\r\n        InstancePartyB = partyB;\r\n        PartyBBalance = balanceB;\r\n\r\n        CurrentContractAddress = address(this);\r\n\r\n        State = StateType.PartyProvisioned;\r\n\r\n        ContractCreated();\r\n    }\r\n\r\n    function HasBalance(address buyer, int itemPrice) public view returns (bool) {\r\n        if (buyer == InstancePartyA) {\r\n            return (PartyABalance >= itemPrice);\r\n        } else if (buyer == InstancePartyB) {\r\n            return (PartyBBalance >= itemPrice);\r\n        } else {\r\n            return false;\r\n        }\r\n    }\r\n\r\n    function UpdateBalance(address sellerParty, address buyerParty, int itemPrice) public {\r\n        ChangeBalance(sellerParty, itemPrice);\r\n        ChangeBalance(buyerParty, -itemPrice);\r\n\r\n        State = StateType.CurrentSaleFinalized;\r\n        ContractUpdated(\"UpdateBalance\");\r\n    }\r\n\r\n    function ChangeBalance(address party, int balance) public {\r\n        if (party == InstancePartyA) {\r\n            PartyABalance += balance;\r\n        } else if (party == InstancePartyB) {\r\n            PartyBBalance += balance;\r\n        }\r\n    }\r\n\r\n    function ListItem(string memory itemName, int itemPrice) public {\r\n        CurrentSeller = msg.sender;\r\n\r\n        currentItemListing = new ItemListing(itemName, itemPrice, CurrentSeller, CurrentContractAddress, InstancePartyA, InstancePartyB);\r\n\r\n        State = StateType.ItemListed;\r\n        ContractUpdated(\"ListItem\");\r\n    }\r\n}\r\n",
  "sourcePath": "G:\\Users\\acer\\Documents\\6833 MUHAMAD ABILA NURRODIN\\KULIAH\\SMT 5\\BLOCKCHAIN\\week 11\\contracts\\BazaarItemListing.sol",
  "compiler": {
    "name": "solc",
    "version": "0.5.16+commit.9c3226ce.Emscripten.clang"
  },
  "schemaVersion": "3.4.16",
  "updatedAt": "2024-11-02T14:40:48.045Z",
  "networkType": "ethereum",
  "devdoc": {
    "methods": {}
  },
  "userdoc": {
    "methods": {}
  }
}