{
  "contractName": "ItemListing",
  "abi": [
    {
      "inputs": [
        {
          "internalType": "string",
          "name": "itemName",
          "type": "string"
        },
        {
          "internalType": "int256",
          "name": "itemPrice",
          "type": "int256"
        },
        {
          "internalType": "address",
          "name": "seller",
          "type": "address"
        },
        {
          "internalType": "address",
          "name": "parentContractAddress",
          "type": "address"
        },
        {
          "internalType": "address",
          "name": "partyA",
          "type": "address"
        },
        {
          "internalType": "address",
          "name": "partyB",
          "type": "address"
        }
      ],
      "payable": false,
      "stateMutability": "nonpayable",
      "type": "constructor"
    },
    {
      "anonymous": false,
      "inputs": [
        {
          "indexed": false,
          "internalType": "string",
          "name": "applicationName",
          "type": "string"
        },
        {
          "indexed": false,
          "internalType": "string",
          "name": "workflowName",
          "type": "string"
        },
        {
          "indexed": false,
          "internalType": "address",
          "name": "originatingAddress",
          "type": "address"
        }
      ],
      "name": "WorkbenchContractCreated",
      "type": "event"
    },
    {
      "anonymous": false,
      "inputs": [
        {
          "indexed": false,
          "internalType": "string",
          "name": "applicationName",
          "type": "string"
        },
        {
          "indexed": false,
          "internalType": "string",
          "name": "workflowName",
          "type": "string"
        },
        {
          "indexed": false,
          "internalType": "string",
          "name": "action",
          "type": "string"
        },
        {
          "indexed": false,
          "internalType": "address",
          "name": "originatingAddress",
          "type": "address"
        }
      ],
      "name": "WorkbenchContractUpdated",
      "type": "event"
    },
    {
      "constant": true,
      "inputs": [],
      "name": "InstanceBuyer",
      "outputs": [
        {
          "internalType": "address",
          "name": "",
          "type": "address"
        }
      ],
      "payable": false,
      "stateMutability": "view",
      "type": "function"
    },
    {
      "constant": true,
      "inputs": [],
      "name": "ItemName",
      "outputs": [
        {
          "internalType": "string",
          "name": "",
          "type": "string"
        }
      ],
      "payable": false,
      "stateMutability": "view",
      "type": "function"
    },
    {
      "constant": true,
      "inputs": [],
      "name": "ItemPrice",
      "outputs": [
        {
          "internalType": "int256",
          "name": "",
          "type": "int256"
        }
      ],
      "payable": false,
      "stateMutability": "view",
      "type": "function"
    },
    {
      "constant": true,
      "inputs": [],
      "name": "ParentContract",
      "outputs": [
        {
          "internalType": "address",
          "name": "",
          "type": "address"
        }
      ],
      "payable": false,
      "stateMutability": "view",
      "type": "function"
    },
    {
      "constant": true,
      "inputs": [],
      "name": "PartyA",
      "outputs": [
        {
          "internalType": "address",
          "name": "",
          "type": "address"
        }
      ],
      "payable": false,
      "stateMutability": "view",
      "type": "function"
    },
    {
      "constant": true,
      "inputs": [],
      "name": "PartyB",
      "outputs": [
        {
          "internalType": "address",
          "name": "",
          "type": "address"
        }
      ],
      "payable": false,
      "stateMutability": "view",
      "type": "function"
    },
    {
      "constant": true,
      "inputs": [],
      "name": "Seller",
      "outputs": [
        {
          "internalType": "address",
          "name": "",
          "type": "address"
        }
      ],
      "payable": false,
      "stateMutability": "view",
      "type": "function"
    },
    {
      "constant": true,
      "inputs": [],
      "name": "State",
      "outputs": [
        {
          "internalType": "enum ItemListing.StateType",
          "name": "",
          "type": "uint8"
        }
      ],
      "payable": false,
      "stateMutability": "view",
      "type": "function"
    },
    {
      "constant": false,
      "inputs": [],
      "name": "BuyItem",
      "outputs": [],
      "payable": false,
      "stateMutability": "nonpayable",
      "type": "function"
    }
  ],
  "bytecode": "0x60806040523480156200001157600080fd5b5060405162000f3838038062000f38833981810160405260c08110156200003757600080fd5b81019080805160405193929190846401000000008211156200005857600080fd5b838201915060208201858111156200006f57600080fd5b82518660018202830111640100000000821117156200008d57600080fd5b8083526020830192505050908051906020019080838360005b83811015620000c3578082015181840152602081019050620000a6565b50505050905090810190601f168015620000f15780820380516001836020036101000a031916815260200191505b5060405260200180519060200190929190805190602001909291908051906020019092919080519060200190929190805190602001909291905050506040518060400160405280601181526020017f42617a6161724974656d4c697374696e670000000000000000000000000000008152506040518060400160405280600b81526020017f4974656d4c697374696e670000000000000000000000000000000000000000008152508160009080519060200190620001b1929190620004b5565b508060019080519060200190620001ca929190620004b5565b50505083600260016101000a81548173ffffffffffffffffffffffffffffffffffffffff021916908373ffffffffffffffffffffffffffffffffffffffff16021790555082600460006101000a81548173ffffffffffffffffffffffffffffffffffffffff021916908373ffffffffffffffffffffffffffffffffffffffff160217905550856005908051906020019062000267929190620004b5565b508460068190555081600760006101000a81548173ffffffffffffffffffffffffffffffffffffffff021916908373ffffffffffffffffffffffffffffffffffffffff16021790555080600860006101000a81548173ffffffffffffffffffffffffffffffffffffffff021916908373ffffffffffffffffffffffffffffffffffffffff1602179055506000600260006101000a81548160ff021916908360018111156200031157fe5b0217905550620003266200033260201b60201c565b50505050505062000564565b7f5164ff06e10737dceb282871701b28082988339e79ba9d49c6c9b0e00312982b60006001336040518080602001806020018473ffffffffffffffffffffffffffffffffffffffff1673ffffffffffffffffffffffffffffffffffffffff1681526020018381038352868181546001816001161561010002031660029004815260200191508054600181600116156101000203166002900480156200041b5780601f10620003ef576101008083540402835291602001916200041b565b820191906000526020600020905b815481529060010190602001808311620003fd57829003601f168201915b5050838103825285818154600181600116156101000203166002900481526020019150805460018160011615610100020316600290048015620004a25780601f106200047657610100808354040283529160200191620004a2565b820191906000526020600020905b8154815290600101906020018083116200048457829003601f168201915b50509550505050505060405180910390a1565b828054600181600116156101000203166002900490600052602060002090601f016020900481019282601f10620004f857805160ff191683800117855562000529565b8280016001018555821562000529579182015b82811115620005285782518255916020019190600101906200050b565b5b5090506200053891906200053c565b5090565b6200056191905b808211156200055d57600081600090555060010162000543565b5090565b90565b6109c480620005746000396000f3fe608060405234801561001057600080fd5b50600436106100935760003560e01c8063a98ac90611610066578063a98ac90614610194578063af3465f614610217578063b7303ba114610221578063f1b6dccd1461026b578063f7066a191461029757610093565b806307fd3687146100985780634ba9d382146100e257806356d60b7614610100578063696d39ff1461014a575b600080fd5b6100a06102e1565b604051808273ffffffffffffffffffffffffffffffffffffffff1673ffffffffffffffffffffffffffffffffffffffff16815260200191505060405180910390f35b6100ea610307565b6040518082815260200191505060405180910390f35b61010861030d565b604051808273ffffffffffffffffffffffffffffffffffffffff1673ffffffffffffffffffffffffffffffffffffffff16815260200191505060405180910390f35b610152610333565b604051808273ffffffffffffffffffffffffffffffffffffffff1673ffffffffffffffffffffffffffffffffffffffff16815260200191505060405180910390f35b61019c610359565b6040518080602001828103825283818151815260200191508051906020019080838360005b838110156101dc5780820151818401526020810190506101c1565b50505050905090810190601f1680156102095780820380516001836020036101000a031916815260200191505b509250505060405180910390f35b61021f6103f7565b005b610229610747565b604051808273ffffffffffffffffffffffffffffffffffffffff1673ffffffffffffffffffffffffffffffffffffffff16815260200191505060405180910390f35b61027361076d565b6040518082600181111561028357fe5b60ff16815260200191505060405180910390f35b61029f610780565b604051808273ffffffffffffffffffffffffffffffffffffffff1673ffffffffffffffffffffffffffffffffffffffff16815260200191505060405180910390f35b600260019054906101000a900473ffffffffffffffffffffffffffffffffffffffff1681565b60065481565b600860009054906101000a900473ffffffffffffffffffffffffffffffffffffffff1681565b600760009054906101000a900473ffffffffffffffffffffffffffffffffffffffff1681565b60058054600181600116156101000203166002900480601f0160208091040260200160405190810160405280929190818152602001828054600181600116156101000203166002900480156103ef5780601f106103c4576101008083540402835291602001916103ef565b820191906000526020600020905b8154815290600101906020018083116103d257829003601f168201915b505050505081565b33600360006101000a81548173ffffffffffffffffffffffffffffffffffffffff021916908373ffffffffffffffffffffffffffffffffffffffff160217905550600360009054906101000a900473ffffffffffffffffffffffffffffffffffffffff1673ffffffffffffffffffffffffffffffffffffffff16600260019054906101000a900473ffffffffffffffffffffffffffffffffffffffff1673ffffffffffffffffffffffffffffffffffffffff1614156104b557600080fd5b6000600460009054906101000a900473ffffffffffffffffffffffffffffffffffffffff1690508073ffffffffffffffffffffffffffffffffffffffff1663f2146ccd600360009054906101000a900473ffffffffffffffffffffffffffffffffffffffff166006546040518363ffffffff1660e01b8152600401808373ffffffffffffffffffffffffffffffffffffffff1673ffffffffffffffffffffffffffffffffffffffff1681526020018281526020019250505060206040518083038186803b15801561058557600080fd5b505afa158015610599573d6000803e3d6000fd5b505050506040513d60208110156105af57600080fd5b81019080805190602001909291905050506105c957600080fd5b8073ffffffffffffffffffffffffffffffffffffffff166383c94768600260019054906101000a900473ffffffffffffffffffffffffffffffffffffffff16600360009054906101000a900473ffffffffffffffffffffffffffffffffffffffff166006546040518463ffffffff1660e01b8152600401808473ffffffffffffffffffffffffffffffffffffffff1673ffffffffffffffffffffffffffffffffffffffff1681526020018373ffffffffffffffffffffffffffffffffffffffff1673ffffffffffffffffffffffffffffffffffffffff1681526020018281526020019350505050600060405180830381600087803b1580156106ca57600080fd5b505af11580156106de573d6000803e3d6000fd5b505050506001600260006101000a81548160ff0219169083600181111561070157fe5b02179055506107446040518060400160405280600781526020017f4275794974656d000000000000000000000000000000000000000000000000008152506107a6565b50565b600360009054906101000a900473ffffffffffffffffffffffffffffffffffffffff1681565b600260009054906101000a900460ff1681565b600460009054906101000a900473ffffffffffffffffffffffffffffffffffffffff1681565b7fa13bd79f323c399d36191e886ded389c940ccd7e6dd744d1505943592fb2b433600060018333604051808060200180602001806020018573ffffffffffffffffffffffffffffffffffffffff1673ffffffffffffffffffffffffffffffffffffffff1681526020018481038452888181546001816001161561010002031660029004815260200191508054600181600116156101000203166002900480156108905780601f1061086557610100808354040283529160200191610890565b820191906000526020600020905b81548152906001019060200180831161087357829003601f168201915b50508481038352878181546001816001161561010002031660029004815260200191508054600181600116156101000203166002900480156109135780601f106108e857610100808354040283529160200191610913565b820191906000526020600020905b8154815290600101906020018083116108f657829003601f168201915b5050848103825286818151815260200191508051906020019080838360005b8381101561094d578082015181840152602081019050610932565b50505050905090810190601f16801561097a5780820380516001836020036101000a031916815260200191505b5097505050505050505060405180910390a15056fea265627a7a7231582092b94e5a1a0e1542c118defbdec94e9790ef34fd33fff8a67317601997a864bd64736f6c63430005100032",
  "source": "pragma solidity ^0.5.16;\r\n\r\nimport \"./WorkbenchBase.sol\";\r\nimport \"./BazaarItemListing.sol\";\r\n\r\ncontract ItemListing is WorkbenchBase(\"BazaarItemListing\", \"ItemListing\")\r\n{\r\n    enum StateType { ItemAvailable, ItemSold }\r\n\r\n    StateType public State;\r\n\r\n    address public Seller;\r\n    address public InstanceBuyer;\r\n    address public ParentContract;\r\n    string public ItemName;\r\n    int public ItemPrice;\r\n    address public PartyA;\r\n    address public PartyB;\r\n\r\n    // Mengganti nama fungsi konstruktor menjadi `constructor`\r\n    constructor(string memory itemName, int itemPrice, address seller, address parentContractAddress, address partyA, address partyB) public {\r\n        Seller = seller;\r\n        ParentContract = parentContractAddress;\r\n        ItemName = itemName;\r\n        ItemPrice = itemPrice;\r\n\r\n        PartyA = partyA;\r\n        PartyB = partyB;\r\n\r\n        State = StateType.ItemAvailable;\r\n        ContractCreated();\r\n    }\r\n\r\n    function BuyItem() public {\r\n        InstanceBuyer = msg.sender;\r\n\r\n        // ensure that the buyer is not the seller\r\n        if (Seller == InstanceBuyer) {\r\n            revert();\r\n        }\r\n\r\n        BazaarItemListing bazaar = BazaarItemListing(ParentContract);\r\n\r\n        // check Buyer's balance\r\n        if (!bazaar.HasBalance(InstanceBuyer, ItemPrice)) {\r\n            revert();\r\n        }\r\n\r\n        // indicate item bought by updating seller and buyer balances\r\n        bazaar.UpdateBalance(Seller, InstanceBuyer, ItemPrice);\r\n\r\n        State = StateType.ItemSold;\r\n        ContractUpdated(\"BuyItem\");\r\n    }\r\n}\r\n",
  "sourcePath": "G:\\Users\\acer\\Documents\\6833 MUHAMAD ABILA NURRODIN\\KULIAH\\SMT 5\\BLOCKCHAIN\\week 11\\contracts\\ItemListing.sol",
  "compiler": {
    "name": "solc",
    "version": "0.5.16+commit.9c3226ce.Emscripten.clang"
  },
  "schemaVersion": "3.4.16",
  "updatedAt": "2024-11-02T14:40:48.055Z",
  "networkType": "ethereum",
  "devdoc": {
    "methods": {}
  },
  "userdoc": {
    "methods": {}
  }
}